{
  "_format": "hh-sol-artifact-1",
  "contractName": "Coinflip",
  "sourceName": "contracts/Coinflip.sol",
  "abi": [
    {
      "inputs": [],
      "stateMutability": "nonpayable",
      "type": "constructor"
    },
    {
      "inputs": [
        {
          "internalType": "address",
          "name": "_addr",
          "type": "address"
        },
        {
          "internalType": "uint256",
          "name": "_amount",
          "type": "uint256"
        },
        {
          "internalType": "uint256",
          "name": "_choice",
          "type": "uint256"
        }
      ],
      "name": "bet",
      "outputs": [],
      "stateMutability": "nonpayable",
      "type": "function"
    },
    {
      "inputs": [],
      "name": "numberOfBettors",
      "outputs": [
        {
          "internalType": "uint256",
          "name": "",
          "type": "uint256"
        }
      ],
      "stateMutability": "view",
      "type": "function"
    },
    {
      "inputs": [
        {
          "internalType": "address",
          "name": "_addr",
          "type": "address"
        }
      ],
      "name": "retrieveBalance",
      "outputs": [
        {
          "internalType": "uint256",
          "name": "",
          "type": "uint256"
        }
      ],
      "stateMutability": "view",
      "type": "function"
    },
    {
      "inputs": [],
      "name": "rewardBet",
      "outputs": [],
      "stateMutability": "nonpayable",
      "type": "function"
    },
    {
      "inputs": [],
      "name": "vrf",
      "outputs": [
        {
          "internalType": "bytes32",
          "name": "result",
          "type": "bytes32"
        }
      ],
      "stateMutability": "view",
      "type": "function"
    }
  ],
  "bytecode": "0x608060405234801561001057600080fd5b50336000806101000a81548173ffffffffffffffffffffffffffffffffffffffff021916908373ffffffffffffffffffffffffffffffffffffffff160217905550610e5b806100606000396000f3fe608060405234801561001057600080fd5b50600436106100575760003560e01c80630c9490431461005c57806336e5b0881461007a5780636a90db5914610098578063789f51a0146100a2578063e20f37ad146100be575b600080fd5b6100646100ee565b6040516100719190610958565b60405180910390f35b610082610134565b60405161008f919061098c565b60405180910390f35b6100a0610141565b005b6100bc60048036038101906100b79190610a36565b6104b2565b005b6100d860048036038101906100d39190610a89565b6108d1565b6040516100e5919061098c565b60405180910390f35b60006100f861091d565b438160006001811061010d5761010c610ab6565b5b60200201818152505060405160208160208460ff600019fa61012b57fe5b80519250505090565b6000600380549050905090565b600061014b6100ee565b60001c905060005b60038054905081101561044357600260006003838154811061017857610177610ab6565b5b9060005260206000200160009054906101000a900473ffffffffffffffffffffffffffffffffffffffff1673ffffffffffffffffffffffffffffffffffffffff1673ffffffffffffffffffffffffffffffffffffffff1681526020019081526020016000206001015460016002846101f09190610b14565b6101fa9190610b74565b141561043057600260006003838154811061021857610217610ab6565b5b9060005260206000200160009054906101000a900473ffffffffffffffffffffffffffffffffffffffff1673ffffffffffffffffffffffffffffffffffffffff1673ffffffffffffffffffffffffffffffffffffffff16815260200190815260200160002060020154600261028d9190610bca565b60026000600384815481106102a5576102a4610ab6565b5b9060005260206000200160009054906101000a900473ffffffffffffffffffffffffffffffffffffffff1673ffffffffffffffffffffffffffffffffffffffff1673ffffffffffffffffffffffffffffffffffffffff168152602001908152602001600020600001600082825461031c9190610b74565b925050819055506003600260006003848154811061033d5761033c610ab6565b5b9060005260206000200160009054906101000a900473ffffffffffffffffffffffffffffffffffffffff1673ffffffffffffffffffffffffffffffffffffffff1673ffffffffffffffffffffffffffffffffffffffff16815260200190815260200160002060010181905550600060026000600384815481106103c3576103c2610ab6565b5b9060005260206000200160009054906101000a900473ffffffffffffffffffffffffffffffffffffffff1673ffffffffffffffffffffffffffffffffffffffff1673ffffffffffffffffffffffffffffffffffffffff168152602001908152602001600020600201819055505b808061043b90610c24565b915050610153565b5060005b6003805490508110156104ae57600380548061046657610465610c6d565b5b6001900381819060005260206000200160006101000a81549073ffffffffffffffffffffffffffffffffffffffff0219169055905580806104a690610c24565b915050610447565b5050565b6001811480610502575060028060008573ffffffffffffffffffffffffffffffffffffffff1673ffffffffffffffffffffffffffffffffffffffff16815260200190815260200160002060010154145b610541576040517f08c379a000000000000000000000000000000000000000000000000000000000815260040161053890610cf9565b60405180910390fd5b6000600260008573ffffffffffffffffffffffffffffffffffffffff1673ffffffffffffffffffffffffffffffffffffffff1681526020019081526020016000206001015414156105d5576064600260008573ffffffffffffffffffffffffffffffffffffffff1673ffffffffffffffffffffffffffffffffffffffff168152602001908152602001600020600001819055505b6000600260008573ffffffffffffffffffffffffffffffffffffffff1673ffffffffffffffffffffffffffffffffffffffff16815260200190815260200160002060010154148061066857506003600260008573ffffffffffffffffffffffffffffffffffffffff1673ffffffffffffffffffffffffffffffffffffffff16815260200190815260200160002060010154145b6106a7576040517f08c379a000000000000000000000000000000000000000000000000000000000815260040161069e90610d65565b60405180910390fd5b81600260008573ffffffffffffffffffffffffffffffffffffffff1673ffffffffffffffffffffffffffffffffffffffff168152602001908152602001600020600001541161072b576040517f08c379a000000000000000000000000000000000000000000000000000000000815260040161072290610dd1565b60405180910390fd5b81600260008573ffffffffffffffffffffffffffffffffffffffff1673ffffffffffffffffffffffffffffffffffffffff168152602001908152602001600020600001600082825461077d9190610df1565b9250508190555081600260008573ffffffffffffffffffffffffffffffffffffffff1673ffffffffffffffffffffffffffffffffffffffff168152602001908152602001600020600201819055506001811415610821576001600260008573ffffffffffffffffffffffffffffffffffffffff1673ffffffffffffffffffffffffffffffffffffffff16815260200190815260200160002060010181905550610869565b60028060008573ffffffffffffffffffffffffffffffffffffffff1673ffffffffffffffffffffffffffffffffffffffff168152602001908152602001600020600101819055505b6003839080600181540180825580915050600190039060005260206000200160009091909190916101000a81548173ffffffffffffffffffffffffffffffffffffffff021916908373ffffffffffffffffffffffffffffffffffffffff160217905550505050565b6000600260008373ffffffffffffffffffffffffffffffffffffffff1673ffffffffffffffffffffffffffffffffffffffff168152602001908152602001600020600001549050919050565b6040518060200160405280600190602082028036833780820191505090505090565b6000819050919050565b6109528161093f565b82525050565b600060208201905061096d6000830184610949565b92915050565b6000819050919050565b61098681610973565b82525050565b60006020820190506109a1600083018461097d565b92915050565b600080fd5b600073ffffffffffffffffffffffffffffffffffffffff82169050919050565b60006109d7826109ac565b9050919050565b6109e7816109cc565b81146109f257600080fd5b50565b600081359050610a04816109de565b92915050565b610a1381610973565b8114610a1e57600080fd5b50565b600081359050610a3081610a0a565b92915050565b600080600060608486031215610a4f57610a4e6109a7565b5b6000610a5d868287016109f5565b9350506020610a6e86828701610a21565b9250506040610a7f86828701610a21565b9150509250925092565b600060208284031215610a9f57610a9e6109a7565b5b6000610aad848285016109f5565b91505092915050565b7f4e487b7100000000000000000000000000000000000000000000000000000000600052603260045260246000fd5b7f4e487b7100000000000000000000000000000000000000000000000000000000600052601260045260246000fd5b6000610b1f82610973565b9150610b2a83610973565b925082610b3a57610b39610ae5565b5b828206905092915050565b7f4e487b7100000000000000000000000000000000000000000000000000000000600052601160045260246000fd5b6000610b7f82610973565b9150610b8a83610973565b9250827fffffffffffffffffffffffffffffffffffffffffffffffffffffffffffffffff03821115610bbf57610bbe610b45565b5b828201905092915050565b6000610bd582610973565b9150610be083610973565b9250817fffffffffffffffffffffffffffffffffffffffffffffffffffffffffffffffff0483118215151615610c1957610c18610b45565b5b828202905092915050565b6000610c2f82610973565b91507fffffffffffffffffffffffffffffffffffffffffffffffffffffffffffffffff821415610c6257610c61610b45565b5b600182019050919050565b7f4e487b7100000000000000000000000000000000000000000000000000000000600052603160045260246000fd5b600082825260208201905092915050565b7f496e76616c696420626574000000000000000000000000000000000000000000600082015250565b6000610ce3600b83610c9c565b9150610cee82610cad565b602082019050919050565b60006020820190508181036000830152610d1281610cd6565b9050919050565b7f5573657220616c72656164792070617274696369706174656400000000000000600082015250565b6000610d4f601983610c9c565b9150610d5a82610d19565b602082019050919050565b60006020820190508181036000830152610d7e81610d42565b9050919050565b7f4e6f7420656e6f7567682066756e647300000000000000000000000000000000600082015250565b6000610dbb601083610c9c565b9150610dc682610d85565b602082019050919050565b60006020820190508181036000830152610dea81610dae565b9050919050565b6000610dfc82610973565b9150610e0783610973565b925082821015610e1a57610e19610b45565b5b82820390509291505056fea26469706673582212205f4e6d5c86dab3d4b400ba178bb96ff60a93d7dab3f610078200a945dc0397d564736f6c634300080a0033",
  "linkReferences": {},
  "deployedLinkReferences": {}
}