{
  "_format": "hh-sol-artifact-1",
  "contractName": "Coinflip",
  "sourceName": "contracts/Coinflip.sol",
  "abi": [
    {
      "inputs": [],
      "stateMutability": "nonpayable",
      "type": "constructor"
    },
    {
      "inputs": [
        {
          "internalType": "uint256",
          "name": "_amount",
          "type": "uint256"
        },
        {
          "internalType": "uint256",
          "name": "_choice",
          "type": "uint256"
        }
      ],
      "name": "bet",
      "outputs": [],
      "stateMutability": "nonpayable",
      "type": "function"
    },
    {
      "inputs": [],
      "name": "numberOfBettors",
      "outputs": [
        {
          "internalType": "uint256",
          "name": "",
          "type": "uint256"
        }
      ],
      "stateMutability": "view",
      "type": "function"
    },
    {
      "inputs": [
        {
          "internalType": "address",
          "name": "_addr",
          "type": "address"
        }
      ],
      "name": "retrieveBalance",
      "outputs": [
        {
          "internalType": "uint256",
          "name": "",
          "type": "uint256"
        }
      ],
      "stateMutability": "view",
      "type": "function"
    },
    {
      "inputs": [],
      "name": "rewardBet",
      "outputs": [],
      "stateMutability": "nonpayable",
      "type": "function"
    },
    {
      "inputs": [],
      "name": "vrf",
      "outputs": [
        {
          "internalType": "bytes32",
          "name": "result",
          "type": "bytes32"
        }
      ],
      "stateMutability": "view",
      "type": "function"
    }
  ],
  "bytecode": "0x608060405234801561001057600080fd5b50336000806101000a81548173ffffffffffffffffffffffffffffffffffffffff021916908373ffffffffffffffffffffffffffffffffffffffff160217905550610e06806100606000396000f3fe608060405234801561001057600080fd5b50600436106100575760003560e01c80630c9490431461005c57806336e5b0881461007a5780636a90db59146100985780636ffcc719146100a2578063e20f37ad146100be575b600080fd5b6100646100ee565b6040516100719190610916565b60405180910390f35b610082610134565b60405161008f919061094a565b60405180910390f35b6100a0610141565b005b6100bc60048036038101906100b79190610996565b6104b2565b005b6100d860048036038101906100d39190610a34565b61088f565b6040516100e5919061094a565b60405180910390f35b60006100f86108db565b438160006001811061010d5761010c610a61565b5b60200201818152505060405160208160208460ff600019fa61012b57fe5b80519250505090565b6000600380549050905090565b600061014b6100ee565b60001c905060005b60038054905081101561044357600260006003838154811061017857610177610a61565b5b9060005260206000200160009054906101000a900473ffffffffffffffffffffffffffffffffffffffff1673ffffffffffffffffffffffffffffffffffffffff1673ffffffffffffffffffffffffffffffffffffffff1681526020019081526020016000206001015460016002846101f09190610abf565b6101fa9190610b1f565b14156103aa57600260006003838154811061021857610217610a61565b5b9060005260206000200160009054906101000a900473ffffffffffffffffffffffffffffffffffffffff1673ffffffffffffffffffffffffffffffffffffffff1673ffffffffffffffffffffffffffffffffffffffff16815260200190815260200160002060020154600261028d9190610b75565b60026000600384815481106102a5576102a4610a61565b5b9060005260206000200160009054906101000a900473ffffffffffffffffffffffffffffffffffffffff1673ffffffffffffffffffffffffffffffffffffffff1673ffffffffffffffffffffffffffffffffffffffff168152602001908152602001600020600001600082825461031c9190610b1f565b925050819055506000600260006003848154811061033d5761033c610a61565b5b9060005260206000200160009054906101000a900473ffffffffffffffffffffffffffffffffffffffff1673ffffffffffffffffffffffffffffffffffffffff1673ffffffffffffffffffffffffffffffffffffffff168152602001908152602001600020600201819055505b600360026000600384815481106103c4576103c3610a61565b5b9060005260206000200160009054906101000a900473ffffffffffffffffffffffffffffffffffffffff1673ffffffffffffffffffffffffffffffffffffffff1673ffffffffffffffffffffffffffffffffffffffff16815260200190815260200160002060010181905550808061043b90610bcf565b915050610153565b5060005b6003805490508110156104ae57600380548061046657610465610c18565b5b6001900381819060005260206000200160006101000a81549073ffffffffffffffffffffffffffffffffffffffff0219169055905580806104a690610bcf565b915050610447565b5050565b60018114806104c15750600281145b610500576040517f08c379a00000000000000000000000000000000000000000000000000000000081526004016104f790610ca4565b60405180910390fd5b6000600260003373ffffffffffffffffffffffffffffffffffffffff1673ffffffffffffffffffffffffffffffffffffffff168152602001908152602001600020600101541415610594576064600260003373ffffffffffffffffffffffffffffffffffffffff1673ffffffffffffffffffffffffffffffffffffffff168152602001908152602001600020600001819055505b6000600260003373ffffffffffffffffffffffffffffffffffffffff1673ffffffffffffffffffffffffffffffffffffffff16815260200190815260200160002060010154148061062757506003600260003373ffffffffffffffffffffffffffffffffffffffff1673ffffffffffffffffffffffffffffffffffffffff16815260200190815260200160002060010154145b610666576040517f08c379a000000000000000000000000000000000000000000000000000000000815260040161065d90610d10565b60405180910390fd5b81600260003373ffffffffffffffffffffffffffffffffffffffff1673ffffffffffffffffffffffffffffffffffffffff16815260200190815260200160002060000154116106ea576040517f08c379a00000000000000000000000000000000000000000000000000000000081526004016106e190610d7c565b60405180910390fd5b81600260003373ffffffffffffffffffffffffffffffffffffffff1673ffffffffffffffffffffffffffffffffffffffff168152602001908152602001600020600001600082825461073c9190610d9c565b9250508190555081600260003373ffffffffffffffffffffffffffffffffffffffff1673ffffffffffffffffffffffffffffffffffffffff1681526020019081526020016000206002018190555060018114156107e0576001600260003373ffffffffffffffffffffffffffffffffffffffff1673ffffffffffffffffffffffffffffffffffffffff16815260200190815260200160002060010181905550610828565b60028060003373ffffffffffffffffffffffffffffffffffffffff1673ffffffffffffffffffffffffffffffffffffffff168152602001908152602001600020600101819055505b6003339080600181540180825580915050600190039060005260206000200160009091909190916101000a81548173ffffffffffffffffffffffffffffffffffffffff021916908373ffffffffffffffffffffffffffffffffffffffff1602179055505050565b6000600260008373ffffffffffffffffffffffffffffffffffffffff1673ffffffffffffffffffffffffffffffffffffffff168152602001908152602001600020600001549050919050565b6040518060200160405280600190602082028036833780820191505090505090565b6000819050919050565b610910816108fd565b82525050565b600060208201905061092b6000830184610907565b92915050565b6000819050919050565b61094481610931565b82525050565b600060208201905061095f600083018461093b565b92915050565b600080fd5b61097381610931565b811461097e57600080fd5b50565b6000813590506109908161096a565b92915050565b600080604083850312156109ad576109ac610965565b5b60006109bb85828601610981565b92505060206109cc85828601610981565b9150509250929050565b600073ffffffffffffffffffffffffffffffffffffffff82169050919050565b6000610a01826109d6565b9050919050565b610a11816109f6565b8114610a1c57600080fd5b50565b600081359050610a2e81610a08565b92915050565b600060208284031215610a4a57610a49610965565b5b6000610a5884828501610a1f565b91505092915050565b7f4e487b7100000000000000000000000000000000000000000000000000000000600052603260045260246000fd5b7f4e487b7100000000000000000000000000000000000000000000000000000000600052601260045260246000fd5b6000610aca82610931565b9150610ad583610931565b925082610ae557610ae4610a90565b5b828206905092915050565b7f4e487b7100000000000000000000000000000000000000000000000000000000600052601160045260246000fd5b6000610b2a82610931565b9150610b3583610931565b9250827fffffffffffffffffffffffffffffffffffffffffffffffffffffffffffffffff03821115610b6a57610b69610af0565b5b828201905092915050565b6000610b8082610931565b9150610b8b83610931565b9250817fffffffffffffffffffffffffffffffffffffffffffffffffffffffffffffffff0483118215151615610bc457610bc3610af0565b5b828202905092915050565b6000610bda82610931565b91507fffffffffffffffffffffffffffffffffffffffffffffffffffffffffffffffff821415610c0d57610c0c610af0565b5b600182019050919050565b7f4e487b7100000000000000000000000000000000000000000000000000000000600052603160045260246000fd5b600082825260208201905092915050565b7f496e76616c696420626574000000000000000000000000000000000000000000600082015250565b6000610c8e600b83610c47565b9150610c9982610c58565b602082019050919050565b60006020820190508181036000830152610cbd81610c81565b9050919050565b7f5573657220616c72656164792070617274696369706174656400000000000000600082015250565b6000610cfa601983610c47565b9150610d0582610cc4565b602082019050919050565b60006020820190508181036000830152610d2981610ced565b9050919050565b7f4e6f7420656e6f7567682066756e647300000000000000000000000000000000600082015250565b6000610d66601083610c47565b9150610d7182610d30565b602082019050919050565b60006020820190508181036000830152610d9581610d59565b9050919050565b6000610da782610931565b9150610db283610931565b925082821015610dc557610dc4610af0565b5b82820390509291505056fea26469706673582212206db4affa8a095a676087e4b97bc28dbac69c1f6f7181482666cb8a658c684e1464736f6c634300080a0033",
  "linkReferences": {},
  "deployedLinkReferences": {}
}